:020000040800F2
:100000002806002001010008F32600081D1C000836
:10001000F1260008C90900081B2A0008000000009A
:10002000000000000000000000000000B5270008EC
:10003000050B000800000000F52600083128000824
:100040001B0100081B0100081B0100081B01000820
:100050001B0100081B0100081B0100081B01000810
:100060001B0100081B0100081B0100081B01000800
:100070001B0100081B0100081B0100081B010008F0
:100080001B0100081B0100081B0100081B010008E0
:100090001B0100081B0100081B0100081B010008D0
:1000A0001B0100081B0100081B0100081B010008C0
:1000B0001B0100081B0100081B0100081B010008B0
:1000C0001B0100081B0100081B0100081B010008A0
:1000D0001B0100081B0100081B0100081B01000890
:1000E0001B0100081B0100081B010008DFF80CD0F1
:1000F00000F070FB00480047493300082806002044
:100100000648804706480047FEE7FEE7FEE7FEE7B1
:10011000FEE7FEE7FEE7FEE7FEE7FEE7A1280008B0
:10012000ED000008202A04DB203A21FA02F0002129
:10013000704721FA02F3D040C2F1200291400843F7
:1001400019467047D2B201E000F8012B491EFBD2DC
:1001500070470022F6E710B513460A4604461946D2
:10016000FFF7F0FF204610BDF0B480EA0102D40F83
:100170004200B2EB410F02D20246084611464A0045
:1001800042D0C30DDDB2C1F3C752AD1A202D35DA0E
:10019000C1F3160141F4000204B15242C5F1200638
:1001A00002FA06F12A411044B3EBD05F23D0C4B168
:1001B000012DA0EBC35009DCF0BC4FF0004202EA75
:1001C000C352DBB200F5000000F01EB9400000F1A0
:1001D000807000EBC350A0F1807040EAD1704900FC
:1001E00009E0490841EAC071A0EBC35000F50000E6
:1001F000400800EBC350F0BC00F0FDB861420122A2
:1002000002EB4101001BF6E7F0BC704781F00041B2
:10021000AAE780F00040A7E780EA010210B502F0EB
:100220000043400022D04A001FD0010E01EB1261B2
:10023000C0F35600C2F3560240F4000042F400023C
:10024000A0FB022000047F39140400D0401C50EAB7
:10025000124001D44000491EC2B20C0604EBD0107B
:10026000401C4008802A02D003E0002010BD20F08E
:100270000100002900DA0020184310BD30B480EAE4
:10028000010202F0004530F0004221F0004013D09E
:1002900090B1C30DD40DC2F31601C0F31600E41AD9
:1002A00041F4000140F400027D34914201D3641C0A
:1002B00000E04900002C02DA30BC002070474FF407
:1002C00000000023914201D3891A034340084FEAFA
:1002D0004101F7D151B1914202D14FF0004105E007
:1002E00002D24FF0010101E06FF0010103EBC450B5
:1002F000284430BC00F07FB8420005D0C0F3C7529C
:100300005242914201DC0020704700EBC15070471F
:1003100096230022114600F077B800F0004230F03A
:1003200000400AD0C10D01F56071C0F3160042EA29
:100330000151C20840071143704700200146704731
:10034000002801DBC0F10040002901DBC1F10041C0
:1003500081427047002801DBC0F10040002901DB29
:10036000C1F100418842704730B50B46014600207C
:100370002022012409E021FA02F59D4205D303FA67
:1003800002F5491B04FA02F52844151EA2F10102E8
:10039000F1DC30BD2DE9F05F0546002092469B461A
:1003A00088460646814640241BE02846414647468B
:1003B0002246FFF7B7FE53465A46C01A914110D362
:1003C00011461846224600F017FA2D1A67EB01086D
:1003D0004F4622460120002100F00EFA17EB0009DB
:1003E0004E41201EA4F10104DFDC484631462A4676
:1003F0004346BDE8F09F0029A8BF7047401C490054
:1004000008BF20F00100704710B4B0FA80FC00FA79
:100410000CF050EA010404BF10BC704749B1CCF1A4
:10042000200421FA04F411FA0CF118BF0121214330
:100430000843A3EB0C01CB1D4FEA00614FEA1020EB
:1004400042BF002010BC704700EBC350104400298D
:10045000A4BF10BC7047401C490008BF20F0010039
:1004600010BC70472DE9FE4F804681EA0300C00FA3
:100470000C46009021F0004123F00045B8EB02004B
:10048000A94105D24046214690461C460B460246ED
:1004900023F00040104347D0270DC7F30A00C3F3F1
:1004A0000A510290401A019040286BDAC3F31300FE
:1004B00040F4801B0098924620B10023D2EB030A3F
:1004C00063EB0B0B01985946C0F14002504600F017
:1004D00093F906460D4650465946019A00F09BF99D
:1004E00010EB08006141002487EA115284EAE773A7
:1004F0001A4340D0009A62B3019A012A4FEA075288
:1005000015DC001B61EB02014FF0004202EA0752CA
:10051000CDE90042001C41F5801132462B4600F027
:100520009BF903B0BDE8F08F40462146F9E7001B78
:1005300061EB0201001C41F5801300185B4120189B
:10054000A2F5001747EB030140EAD570B6196D41DB
:1005500011E06D084FEA360645EAC0754FEA0752CA
:10056000001B61EB0201001C41F5801149084FEAB4
:1005700030000019514132462B4603B0BDE8F04F20
:1005800000F05BB90098012240000023D0EB02028A
:1005900063EBE073009821464FEAE074B8EB00008B
:1005A00061EB0401E9E783F000435BE781F0004180
:1005B00058E72DE9FE4F81EA030404F0004421F0DE
:1005C000004100944FF0000B23F0004350EA010477
:1005D0005ED052EA03045BD0C3F30A54C1F30A5558
:1005E0002C44A4F2F3340194A0FB0254C1F3130190
:1005F00041F48011C3F3130343F4801301FB02445D
:1006000000FB034E840A970A44EA815447EA835761
:10061000A4FB076802958D0A05FB07854FEA932C1A
:1006200004FB0C542705029D4FEA065847EA16378B
:10063000B5EB08056EEB070C870E920E47EA8117A3
:1006400042EA8312A7FB0201B6EB0B0164EB000444
:100650002B0D43EA0C335E1844EB1C50DA4651462E
:10066000E7FB0201C5F313044FEA0B3343EA1453CB
:100670004FEA0432019C43EA0603A4F10C040294FD
:10068000009CCDE900B400F0E7F803B0BDE8F08FBE
:1006900000200146F9E72DE9F04D81EA030404F05A
:1006A000004B21F0004514464FF0000A23F00041B2
:1006B00050EA050220D054EA01021DD0C5F30A57C2
:1006C0000246C5F31303C1F31300C1F30A5640F405
:1006D000801543F48013A7EB0608101BD64608F2DA
:1006E000FD3873EB050002D308F1010801E0921810
:1006F0005B41B8F1000F03DA00200146BDE8F08D40
:1007000000204FF48011064684460EE0171B73EB61
:10071000050705D3121B63EB050306434CEA010CE6
:1007200049084FEA300092185B4150EA0107EDD1C9
:1007300052EA030012D082EA040083EA050108436A
:1007400005D0101BAB4106D20122002306E0002297
:100750004FF0004302E06FF0010253101AEB060065
:100760004CEB085110EB0A0041EB0B01BDE8F04DDA
:1007700000F063B8C1F30A52C1F3130140F2FF3332
:1007800041F480119A4202DA00200146704740F29B
:1007900033439A42A2F2334202DC5242FFF7C2BC18
:1007A00000F02AB830B5041E71F1000404DB4FF0EC
:1007B0000044404264EB0101141E73F1000405DBA8
:1007C0001C464FF00043524263EB0403994208BFBA
:1007D000904230BD064C074D06E0E06840F0010352
:1007E00094E8070098471034AC42F6D3FFF782FC38
:1007F0003036000850360008202A04DB203A00FA80
:1008000002F1002070479140C2F1200320FA03F367
:10081000194390407047202A06DBCB17203A41FA53
:1008200002F043EAE07306E041FA02F3D040C2F17D
:100830002002914008431946704710B5141E73F109
:10084000000408DA401C41F1000192185B411A4390
:1008500001D120F0010010BD2DE9F04D92469B46DC
:1008600011B1B1FA81F202E0B0FA80F22032904682
:10087000FFF7C2FF04460F4640EA0A0041EA0B01B7
:1008800053465A46084313D0114653EA010019D083
:10089000C8F140025046FFF745FC05460E4650465B
:1008A00059464246FFF7A8FF084305D0012004E05F
:1008B00020463946BDE8F08D0020054346EAE07643
:1008C0002C4337430A986305E40AA0EB0800002292
:1008D000FD0A44EA47540A3002D500200146E9E700
:1008E000010510196941DDE9084500196941BDE8B4
:1008F000F04DA2E770B5044600688168C943C90796
:1009000017D1816821F00101816000F065FC054686
:100910000AE000BF00F060FC401B022804D92068F8
:100920008068C043C00706D020688068C043C00705
:10093000F0D0002070BDA06A40F01000A062E06A14
:1009400040F00100E062012070BD0000F8B5002613
:100950000446009600688168C943C9072DD08168A4
:1009600041F001018160164816490068B0FBF1F0C2
:1009700000E0401E00900028FBD100F02DFC054651
:1009800016E000BF00F028FC401B022810D92068A8
:100990008068C043C0070BD0A06A40F01000A0627E
:1009A000E06A40F00100E06284F824600120F8BDB4
:1009B00020688068C043C007E4D10020F8BD000073
:1009C0001000002040420F00FEE700002DE9F0413A
:1009D00000F002FC124F054600260821384600F0C0
:1009E000E9FB104C2178884207D06168691A3229E6
:1009F00003D900B90126207065601021384600F047
:100A0000D9FB6178884207D0A168691A322903D9D5
:100A100000B902266070A5603046BDE8F081000094
:100A200000080140140000202DE9F047ADF5487D95
:100A30000C0005D0EA46C82C07D9C824002106E0DE
:100A400000200DF5487DBDE8F087002104E050F856
:100A500021304AF82130491CA142F8DB0026A4F1DC
:100A6000010818E00025A71B7F1E11E00AEB85098D
:100A70005AF82500D9F80410FFF76CFC07D25AF891
:100A80002510D9F804204AF82520C9F804106D1C57
:100A9000AF42EBDC761C4645E4DBE00703D061089F
:100AA0005AF82100CDE760085AF820100AEB8000C0
:100AB00050F8040CFFF758FB0DF5487D4FF0FF315F
:100AC000BDE8F047FFF718BC2DE9F0410D000746DF
:100AD00002D0002634460AE00020BDE8F08100BFC5
:100AE00057F824103046FFF73FFB0646641CAC4223
:100AF000F6DB2846FFF70CFC01463046BDE8F04126
:100B0000FFF7BCBB7047000072B600200849401CCC
:100B10008842FCD9BFF34F8F06480168064A01F4AA
:100B2000E06111430160BFF34F8F00BFFDE700009C
:100B300080841E000CED00E00400FA05F8B50024E6
:100B4000009490F824202546012A12D0012280F832
:100B500024204A681F23072A0DD20668776B521E8D
:100B600002EB820293409F430B6893401F437763DD
:100B700019E00220F8BD06680D2A0AD2376BD21F91
:100B800002EB820293409F430B6893401F433763FD
:100B900009E0F76A0D3A02EB820293409F430B682B
:100BA00093401F43F7620A68072306680A2A0AD39C
:100BB000F7680A3A02EB420293409F438B689340E6
:100BC0001F43F76008E0376902EB420293409F43FE
:100BD0008B6893401F4337610A68102A01D0112A9D
:100BE00020D1124B02689A4217D193681B0219D484
:100BF000936843F4000393600968102912D10C49EB
:100C00000C4A0968B1FBF2F101EB8101490000E0F7
:100C1000491E00910029FBD104E0816A41F02001C6
:100C20008162012480F824502046F8BD0024014050
:100C30001000002040420F000068C06C70470000A8
:100C40002DE9F0414FF0000704003D467ED0A06A38
:100C5000002628B9E66284F82460204600F07EF879
:100C60002046FFF747FEA16AC90600D420B1A06A5A
:100C700040F01000A06269E0A16A21F4885141F0BF
:100C80000201A1626268E169237B0A4347EA4301EA
:100C90000A43A1684FF48077B94209D0012907D0EF
:100CA0005FF0000194F814C0BCF1010F02D00AE01B
:100CB0003946F7E7F3B1A36A43F02003A362E36A7E
:100CC00043F00103E3622368D3F804C02CF4694CB9
:100CD0004CEA010CC3F804C021688B68DFF870C0CF
:100CE00003EA0C0313438B60A168B9420BD00129BE
:100CF00009D00CE0DFF85CC0A3690CEB43330B4375
:100D000043F40061DFE7218A0D05A5F58015216810
:100D1000CB6A23F470032B43CB62216889680E4BA6
:100D20001940914208D1E662A16A21F0020141F026
:100D30000101A162BDE8F081A06A20F0020040F04C
:100D40001000A062E06A40F00100E0620120F1E7DB
:100D5000FDF7E1FF00E0FFFFFE0E1FFF00B585B0CD
:100D60000021009101910291039100680E4988428F
:100D700018D10E48816941F400718161816901F4E3
:100D800000710491816941F00401816180696946C3
:100D900000F004000490012000900320019004481A
:100DA00000F018F905B000BD002401400010024019
:100DB000000801402DE9F84300270D46044600973E
:100DC00000F00AFA804620688168C90508D5A06A43
:100DD00040F02000A06284F824700120BDE8F88370
:100DE0004168C90503D4C06A10F4700F2AD00220EC
:100DF00000F082FA3B490968B1FBF0F6206803690C
:100E000039490B424FEA61014FEAA1121FD1C36871
:100E10004FEA611C13EA0C0F19D103690B4225D16B
:100E2000C068104222D1142023E0681C0AD02DB1E2
:100E300000F0D2F9A0EB0800A84203D920680068AE
:100E4000800725D5206800688007EED52DE003696E
:100E50000B4202D1C168114206D0026923490A42FD
:100E600006D1C068084203D1542002E0292000E0E6
:100E7000FC204643009816E0681C11D02DB100F00C
:100E8000ABF9A0EB0800A8420AD90098B04207D2FB
:100E9000A06A40F00400A06284F8247003209DE75B
:100EA0000098401C0090B042E6D321686FF0120019
:100EB0000860A06A40F40070A06220688068C0F3F7
:100EC000424007280CD1207B50B9A06A20F48070E2
:100ED000A062A06AC00403D4A06A40F00100A0622E
:100EE00000207BE71000002024499224499224002E
:100EF00070B5044690F8240001280DD0012084F834
:100F000024002046FFF722FD02004FF0000005D02C
:100F100084F82400104670BD022070BDA16A40F222
:100F20000123994341F48071A1621F4D23681F4939
:100F3000AB4218D10E6816F4702F14D0A66A46F48E
:100F40008016A6620E68760505D5A66A26F40056B8
:100F500046F48056A662A66AF6040AD5E66A26F02A
:100F60000606E66206E0A66A26F48016A6625E68B9
:100F7000E9E7E06284F824006FF00200186020685E
:100F80008368C3F34243072B05D1A84208D10968FF
:100F900011F4702F04D0816841F480118160B9E7A9
:100FA000816841F4A001F9E70028014004240140D0
:100FB00070B5044600F010F90546601C02D00448E4
:100FC0000078044400F008F9401BA042FAD370BD39
:100FD000040000202DE9F84FDFF8B8910024A9F1B2
:100FE000040B23460F2709F1040AABF1040EC9E0F4
:100FF0000125A5402A40AA427DD1674ED1F804C000
:10100000ACEB0608B44532D014DCBCF1030F3AD087
:1010100009DCBCF1000F2AD0BCF1010F1CD0BCF1DF
:10102000020F31D11DE0BCF1110F17D0BCF1120F2E
:101030002AD119E0B8F5881F19D006DCB8F5803F31
:1010400015D0B8F5801F1FD111E0B8F5001F0ED0E4
:10105000B8F5041F18D10AE0CB6815E0CB681B1D5A
:1010600012E0CB6808330FE0CB680C330CE08B68E0
:101070002BB1012B4FF0080303D0456104E004239A
:1010800002E0056100E00023FF2A01D8064601E0E6
:1010900000F104064FEA840501D9A5F12005D6F830
:1010A000008007FA05FC28EA0C0803FA05F548EA6F
:1010B0000508C6F800804D68ED0062D5374DAE6971
:1010C00046F00106AE61AD6924F0030605F00105A6
:1010D0000095334D06EB050CDCF80850A607360FDB
:1010E00007FA06F825EA0805DFF8B880404503D17D
:1010F0004FF0000817E044E0DFF8AC80404502D133
:101100004FF001080FE0DFF8A480404502D14FF016
:10111000020808E0DFF89880404502D14FF003084C
:1011200001E04FF0040808FA06F848EA0508CCF890
:1011300008804D68D9F80060ED024D4601D5164390
:1011400000E096432E604D68DAF80060AD02554627
:1011500001D5164300E096432E604D68DBF8006031
:10116000AD035D4601D5164300E096432E604D6801
:10117000DEF80060ED03754601D5164300E09643A6
:101180002E60641C0D682A46E5407FF431AFBDE84F
:10119000F88F000008040140000011100010024008
:1011A0000000014000080140000C01400010014017
:1011B000001401408068084000D001207047C268D8
:1011C00021EA02030A4043EA0241016170470AB181
:1011D000016170470904FBE701488068704700001F
:1011E0000400002002488168027811448160704741
:1011F00004000020074810B5016841F010010160AB
:10120000032000F067F80F2000F006F800F024F843
:10121000002010BD0020024070B50D4D04464FF473
:101220007A712878B1FBF0F00A490968B1FBF0F057
:1012300000F026FC48B9102C07D200222146501E8F
:1012400000F028F800206C6070BD012070BD000027
:1012500004000020100000200C4808B5816941F00E
:1012600001018161816901F001010091C16941F0D1
:101270008051C161C06900F080500090044841680D
:1012800021F0E06141F08061416008BD0010024042
:1012900000000140F0B40E4B1B680C46C3F3022360
:1012A000C3F10705042D00D90425191D072901D212
:1012B000002300E0DB1E012606FA05F1491E21404D
:1012C00099409E40761E16403143F0BC01F0B6BBFB
:1012D0000CED00E0064900F0070208684FF6FF0336
:1012E000184040EA0220034A10430860704700009B
:1012F0000CED00E00000FA0510B501460020234C7B
:10130000012922D0022939D010291DD16168226813
:10131000D20119D51E48C1F38342C903805C0AD5A6
:1013200061681B4AC1F34041921E515C194AB2FBED
:10133000F1F1484301E0184948436168490203D488
:1013400040000321B0FBF1F010BD226AC2F301217D
:10135000012903D1920701D5C80310BD022905D187
:10136000626A920702D549F6404010BD0329FCD1BC
:1013700021688903F9D54FF2244010BD00F02AF905
:101380006168C1F38131491C4900DBE7001002406C
:101390004434000800127A0000093D002DE9F843AA
:1013A00005460078354CC00754D0E0690026C000DF
:1013B00008D4E06940F08050E061E069012600F067
:1013C000805000902E480168C90512D401688046FB
:1013D00041F480710160FFF7FFFE074605E000BFA2
:1013E000FFF7FAFEC01B642823D8D8F80000C00518
:1013F000F6D5206A10F4407021D0A98801F440711C
:1014000081421CD0206A1F49012220F440700A60EA
:1014100000220A602062C00711D0FFF7DDFE0746F8
:1014200041F2883808E000BFFFF7D6FEC11B4145F6
:1014300002D90320BDE8F883206A8007F4D5206A2A
:10144000696820F44070084320621EB1E06920F012
:101450008050E0612878800705D56068A96820F48D
:101460004040084360602878C00605D56068E96898
:1014700020F48000084360600020DBE70010024099
:1014800000700040400442422DE9F0470F4605003D
:1014900061D0434E306800F00700B84209D230688E
:1014A00020F0070038433060306800F00700B84291
:1014B00051D128683B4C810712D5400703D560689D
:1014C00040F4E06060602878000703D5606840F46D
:1014D000605060606068A96820F0F00008436060B8
:1014E0002878C00728D06868012810D02168022811
:1014F00010D0890700292EDA616821F00301014329
:101500006160FFF769FE804641F288390DE021688D
:101510008903EFE78901EDE7FFF75EFEA0EB080125
:10152000494502D90320BDE8F0876068696800F08A
:101530000C00B0EB810FEFD1306800F00700B8422B
:101540000BD9306820F0070038433060306800F075
:101550000700B84201D00120E5E72878400705D50B
:101560006068E96820F4E06008436060287800075C
:1015700006D56068296920F4605040EAC1006060C7
:1015800000F038F86168084AC1F30311515CC840A3
:101590000649086006480068FFF73EFE0020C2E7E3
:1015A00000200240001002405434000810000020C7
:1015B000080000200448054900684968044AC1F34E
:1015C0000221515CC840704710000020001002400A
:1015D000643400080448054900684968044AC1F3B6
:1015E000C221515CC840704710000020001002402A
:1015F000643400080E4A51680E4801F00C03042BB5
:1016000011D0082B0FD10C48C1F38343C903C05C30
:101610000AD55168084AC1F34041921E515C054AFF
:101620005043B0FBF1F07047044948437047000055
:101630000010024000127A003234000800093D0018
:101640002DE9F84F040070D02078C04DC00749D074
:101650006868C0F38100012807D06868C0F3810082
:10166000022809D16868C00306D52868800339D5E7
:1016700060680028E7D035E06068B0F5803F0BD0A7
:1016800010B1B0F5A02F11D0286820F48030286068
:10169000286820F4802002E0286840F48030286028
:1016A000606890B1FFF798FD06460AE0286840F4AC
:1016B00080202860F0E700BFFFF78EFD801B6428C4
:1016C00073D828688003F7D50CE0FFF785FD064640
:1016D00005E000BFFFF780FD801B6428F0D8286874
:1016E0008003F7D420789A4E80074FF001094FF01D
:1016F000000839D5686810F00C0F07D06868C0F38F
:101700008100022809D16868C00306D428688007D0
:1017100014D52069012808D110E02069B0B1C6F8BD
:101720000090FFF759FD074605E00AE1FFF754FD79
:10173000C01B0228C4D828688007F7D528686169CB
:1017400020F0F80040EAC10028600DE0C6F80080F3
:10175000FFF742FD074604E0FFF73EFDC01B0228ED
:1017600023D828688007F7D4207800072CD579483B
:10177000A169D9B1C0F80090FFF72EFD074604E03B
:10178000FFF72AFDC01B02280FD8686A8007F7D52B
:1017900071484FF4FA510068B0FBF1F0009000BFBF
:1017A0000098411E0091FAD20EE080E0C0F800805F
:1017B000FFF712FD074604E0FFF70EFDC01B0228ED
:1017C00075D8686A8007F7D42078400760D5E86943
:1017D0000027C00008D4E86940F08050E861E8695B
:1017E000012700F0805000905C480168C90513D4BF
:1017F0000168834641F480710160FFF7EDFC824689
:1018000006E000BFFFF7E8FCA0EB0A0064284ED812
:10181000DBF80000C005F5D5E06801280AD008B162
:10182000052813D0286A20F001002862286A20F0D9
:10183000040002E0286A40F001002862E06841F2FA
:10184000883B98B1FFF7C8FC82460BE0286A40F05D
:1018500004002862EEE700BFFFF7BEFCA0EB0A0120
:1018600059455AD8286A8007F6D50CE0FFF7B4FC32
:10187000824605E0FFF7B0FCA0EB0A0159454CD8C1
:10188000286A8007F6D41FB1E86920F08050E8612B
:10189000E06988B36968C1F38101022944D0022854
:1018A000C6F8608004D0FFF797FC044638E034E0C7
:1018B000FFF792FC074604E0FFF78EFCC01B0228EE
:1018C0002BD828688001F7D4206AB0F5803F05D175
:1018D0006868A16820F4003008436860D4E9080112
:1018E0000843696821F4741108436860C6F8609081
:1018F000FFF772FC044606E025E000BFFFF76CFC32
:10190000001B022809D828688001F7D51BE000BF1A
:10191000FFF762FC001B022802D90320BDE8F88F04
:1019200028688001F4D40EE00128F7D06868226AA4
:1019300000F48031914204D1616A00F47010884251
:1019400001D00120EAE70020E8E700000010024093
:10195000000042428004424210000020007000401B
:1019600070B5040009D0606A002540B12561656149
:10197000A56294F8510040B10CE0012070BD606890
:10198000B0F5827FF4D0E561F2E784F8505020464C
:1019900000F040F8022084F851002068016821F02E
:1019A00040010160A088218900F4827001F40441A3
:1019B0000843A18901F400610843217C01F0020180
:1019C0000843217D01F001010843218B01F40071DE
:1019D0000843217F01F03801084394F8201001F0FA
:1019E00080010843218D01F40051084321680860FB
:1019F000A069042101EA1040216848602068C1699B
:101A000021F40061C1616565012084F85100002066
:101A100070BD000010B586B00021009101910291C7
:101A2000039100681349884221D11348816941F428
:101A300080518161816901F480510491816941F093
:101A40000401816180690D4C00F004000490A02025
:101A5000009069462046FFF7BDFA40200090022022
:101A600001900320039069462046FFF7B3FA06B0C1
:101A700010BD00000030014000100240000801408D
:101A800010B5401EB0F1807F01D3012010BD4FF092
:101A9000E02460610F21601700F0D0FF0020A061FA
:101AA00007202061002010BD70B5040004D094F818
:101AB0004100002510B106E0012070BD84F84050BF
:101AC000204600F023F8242084F841002068C168F3
:101AD00021F40051C160204600F00AFF206801692E
:101AE00021F4904101612068416921F02A0141619E
:101AF0002068C16841F40051C1606564202084F809
:101B0000410084F842006563002070BD30B585B0A7
:101B100000240094019402940394006814498842BC
:101B200024D11448816941F480418161816901F4C3
:101B300080410491816941F00401816180690E4D09
:101B400000F0040004904FF4007000900220019017
:101B50000320039069462846FFF73CFA2815CDE993
:101B60000004694628460294FFF734FA05B030BDF8
:101B70000038014000100240000801402DE9F84300
:101B8000044690F84100984616460D46202802D09B
:101B90000220BDE8F88385B17EB100206064212079
:101BA00084F84100FFF718FBA6848146E684A0680C
:101BB0002027B0F5805F02D003E00120E9E720692B
:101BC00010B12E4600250EE000260CE080212046B4
:101BD00000F0EAFEA8B9C6B116F8010B216848600A
:101BE000E08C401EE084E08C4B464FF00002CDF8C4
:101BF00000800028EAD14FF04001204600F0D4FEDA
:101C000040B184F841700320C3E735F8020BC0F3FC
:101C10000800E3E784F841700020BAE7FEE70360BC
:101C20004FF07E534360C0E902120021016170470A
:101C30002DE9F04104468846D4E90101FEF794FA03
:101C40000746E168FEF790FA01463846FEF716FBB4
:101C500020612568064629464046FEF7D7FA3146F8
:101C6000FEF7DAFA2946FEF77FFA0546206031468C
:101C70004FF07E50FEF7CAFA3946FEF7CDFA6060A3
:101C80002846BDE8F0810000014800787047000058
:101C900020000020024800210170417070470000C0
:101CA0002000002001480078704700004C00002010
:101CB0000248002101704170817070474C00002083
:101CC0002DE9F04FDFF86082044687B098F80000F5
:101CD00000287CD0FFF780FA06462046FEF718FB66
:101CE000054698F802004FF0010970B129468F4867
:101CF000FFF79EFF4FEA000598F80070012F0ED005
:101D0000022F49D0032F47D0FCE02B464FF07C52E6
:101D100087498648FFF783FF88F80290ECE728465A
:101D2000D8F82410FEF70CFB01D2C8F82450B8F8FC
:101D30000610491C8FB21421B7FBF1F001FB1070A3
:101D4000A8F8067050B92846FEF7E7FA8DE81300A8
:101D5000C8233A46314677A000F060FEB8F8060086
:101D60004746C828D0D3786AB860824687F8019081
:101D70002846FEF7D2FA054688465046FEF7CDFAC9
:101D800000960295CDE9038402460B46774800F0A1
:101D900045FE00203870A1E0D8F82000DFF8D0B16F
:101DA000A6EB000AB8F8040014284BD22846D8F84D
:101DB0001010FEF7CFFA01D2C8F81050B8F804009E
:101DC000401C80B2A8F80400142830D300E086E05C
:101DD000D8F8100059468146C8F81400FEF7C4F937
:101DE00006464846D8F80810FEF710FA6149FEF793
:101DF00013FA3146FEF742FA0646C8F8180028469C
:101E0000FEF78BFA054688463046FEF786FA064608
:101E10000F464846FEF781FA0495CDE905848DE822
:101E2000C00402460B46544800F0F8FD6AE028461C
:101E3000FEF773FA02460B46514650A0009400F09C
:101E4000EDFD5FE05946D8F81400C3460090FEF758
:101E50008BF9804629460098FEF7D8F94146FEF7EF
:101E60000DFA8046032F0DD04FF0FF315F46DBF8AF
:101E70001800FEF741FA4146FEF762FA44D2F878BC
:101E800078B111E0FEF749FA06460F462846FEF7FC
:101E900044FA0096CDE901740B460246514643A030
:101EA0002EE087F80390FE61F969F868711A8142A3
:101EB000B946404616D3FEF730FA07460E46284686
:101EC000FEF72BFA0097CDE9016402460B46514616
:101ED000444800F0A3FD032189F80010012007B059
:101EE000BDE8F08FFEF719FA07460E462846FEF7C2
:101EF00014FA02460B4651463BA00097CDE9016417
:101F000000F08CFD0020EAE70020F8704046FEF764
:101F100004FA07460E462846FEF7FFF902460B462E
:101F200051463FA00097E9E74C0000201402002032
:101F30000AD7233C5B25755D205B4B616C6D616E40
:101F40005D204C3120436F6C6C656374696E672053
:101F50002825642F2564292E2E2E20503A252E3236
:101F6000662C205261773A25750D0A00E03500088D
:101F70006F12833ACDCCCC3E8C3500085B25755D65
:101F8000205B4B616C6D616E5D204C6561726E69AA
:101F90006E67204C322E2E2E20503A252E32662C83
:101FA000205261773A25750D0A0000005B25755DAA
:101FB000205B4B616C6D616E5D20503A252E326660
:101FC0002C20626574613A252E34662C205B5355B3
:101FD00043434553535D2C205261773A25750D0AD2
:101FE00000000000403500085B25755D205B4B61FB
:101FF0006C6D616E5D20503A252E32662C20626534
:1020000074613A252E34662C2050656E64696E67C3
:102010002E2E2E2C205261773A25750D0A000000D5
:102020005B25755D205B4B616C6D616E5D20503A88
:10203000252E32662C20626574613A252E34662C7A
:10204000204E6F742052656164792C205261773A7A
:1020500025750D0A0000000004480021044AC180D3
:102060004262817001210170704700004C00002025
:10207000804FC34710B5094C607850B10020A08054
:102080002061E070A070FFF7A7F8206202202070A6
:1020900010BDBDE8104002A000F0C0BC4C00002004
:1020A0005B4B616C6D616E5D204572726F723A20A0
:1020B0004C31206E6F7420736574210D0A0000008E
:1020C00001490020087070474C0000202DE9F04FB6
:1020D000DFF8B88204468BB098F8000000287DD065
:1020E0004FF00009CDF81C908DF82490FFF774F89C
:1020F00005462046FEF70CF909AA07A900F0FCFAEC
:1021000098F800604FF0010B012E04D0022E4FD042
:10211000032E4DD028E19DF82400B0B1D8F8281046
:102120000798FEF70DF902D20798C8F82800B8F80A
:102130000A00401C80B21421B0FBF1F2A8F80A009A
:10214000074601FB120020B114E02246294690A068
:102150006EE0D8F82800FEF7E0F804460E4607982F
:10216000FEF7DBF88DE85300C8233A46294690A0D5
:1021700000F054FCB8F80A00C828CBD3D8F82800DF
:10218000C8F80C00074688F801B00798FEF7C5F8B4
:1021900004460E463846FEF7C0F8CDE90246024630
:1021A0000B469048009500F039FC88F80090C7E095
:1021B000D8F824002F1A9DF82400A8B3B8F8080016
:1021C000DFF824A2142870D2D8F814100798FEF76C
:1021D000C1F802D20798C8F8140000E0B1E0B8F8DE
:1021E0000800401C80B2A8F80800142851D3D8F881
:1021F0001400C8F81800D8F80C10FEF7A1F81AD28D
:10220000D8F80C00FEF789F804460D46D8F81800F7
:10221000FEF783F802460B4674A0CDE9004500F0B6
:10222000FDFB88F800909FE0FFE7224639467AA040
:1022300000F0F4FB98E0D8F8180051468246FDF70C
:1022400093FF05465046D8F80C10FDF7DFFF7A499A
:10225000FDF7E2FF2946FEF711F80546C8F81C0015
:102260000798FEF75AF8814688462846FEF755F843
:1022700005460E465046FEF750F8CDF81090CDE9D1
:1022800005848DE8E00002460B466C4800F0C6FB72
:102290006AE00798FEF741F802460B46394668A007
:1022A000009400F0BBFB5FE0FFE75146D8F8180050
:1022B000C2460090FDF758FF8046079902910098AA
:1022C000FDF7A4FF4146FDF7D9FF8046032E0DD050
:1022D0004FF0FF315646DAF81C00FEF70DF8414684
:1022E000FEF72EF842D2B07868B10FE0FEF715F88D
:1022F00005460E460298FEF710F802460B46394690
:1023000059A000952CE086F802B03562316A306938
:10231000691A8142B146404616D3FDF7FEFF0546D5
:102320000E460798FDF7F9FF0095CDE901640246D6
:102330000B463946574800F071FB032189F800101D
:1023400001200BB0BDE8F08FFDF7E7FF05460E4614
:102350000798FDF7E2FF02460B4639464EA000956E
:10236000CDE9016400F05AFB0020EAE786F802900C
:102370004046FDF7D2FF05460E460798FDF7CDFF14
:1023800002460B46394650A00095E9E720000020A0
:102390005B25755D204C31205761726D696E672039
:1023A00075702E2E2E205261773A25750D0A000089
:1023B0005B25755D204C3120436F6C6C65637469DF
:1023C0006E67202825642F2564292E2E2E20437524
:1023D00072723A252E32662C204D696E3A252E32C5
:1023E000660D0A006C3400086F12833A2D2D2D20E3
:1023F0004552524F52202D2D2D205B4C696E655D4C
:10240000204C3228252E326629203C204C312825AC
:102410002E326629210D0A005B25755D2043616C13
:1024200063756C6174696E672E2E2E205261773A47
:1024300025750D0A000000003333333FF4340008E3
:102440005B25755D204C6561726E696E67204C324C
:102450002E2E2E20503A252E32662C205261773AAD
:1024600025750D0A000000005B25755D20503A259A
:102470002E32662C20626574613A252E34662C203B
:102480005B535543434553535D2C205261773A25A6
:10249000750D0A00B03400085B25755D20503A25A3
:1024A0002E32662C20626574613A252E34662C200B
:1024B00050656E64696E672E2E2E2C205261773A1D
:1024C00025750D0A000000005B25755D20503A253A
:1024D0002E32662C20626574613A252E34662C20DB
:1024E0004E6F742052656164792C205261773A25D1
:1024F000750D0A0010B500F049F90448002141812A
:10250000034981620121017010BD000020000020FC
:10251000804FC34710B50A4C607858B100F036F9C7
:10252000002020816061A070FEF756FE60620220EC
:10253000207010BDBDE8104002A000F06FBA00008E
:10254000200000205B4C696E655D204572726F72E1
:102550003A204C31206E6F742073657421205072C4
:102560006573732042746E322066697273742E0D27
:102570000A00000001490020087070472000002078
:102580003EB5002411480094019402940E498460E1
:10259000016001250573047505614FF460214460F5
:1025A000C161FEF74DFB08B1FEF7AEFA03200094BF
:1025B000CDE9015069460548FEF7C0FA002801D070
:1025C000FEF7A2FA3EBD0000002401407C0000207E
:1025D0002DE9F04186B0002424480094019402942F
:1025E0000394816941F010018161816901F010015A
:1025F0000491816941F020018161816901F020012C
:102600000491816941F0040181618069184F00F0F3
:1026100004004FF400550490002229463846FEF786
:10262000D6FDDFF85080002206214046FEF7CFFDA0
:102630000095022601250396CDE9015469463846E6
:10264000FEF7C8FC0620CDE90005CDE90246694643
:102650004046FEF7BFFC18208DE831006946404631
:10266000FEF7B8FC06B0BDE8F081000000100240A3
:1026700000100140000801400E4810B50C490160EF
:10268000002141608160C1604FF400720161C0E9C6
:1026900005120162416281620A21C162FFF760F99D
:1026A000002803D0BDE81040FEF72EBA10BD000090
:1026B00000300140AC0000200C4810B50A49016010
:1026C0004FF4E1314160002181600C22C160C0E91A
:1026D00004128161C161FFF7E7F9002803D0BDE86A
:1026E0001040FEF711BA10BD00380140040100206F
:1026F000FEE7FEE7704700002DE9F041214C0F4650
:102700001546A188204A0A2904D242F82100491C12
:10271000A1800AE05FF0000102EB81035B6842F8F0
:102720002130491C0929F7DB5062A08800260A28BD
:102730001BD30A211448FEF777F9134AE18828329F
:10274000282904D242F82100491CE1800AE0002136
:1027500002EB81035B6842F82130491C2729F7DB33
:10276000C2F89C00E088282802D22E70BDE8F081D3
:10277000054828212830FEF7A7F938600120287085
:10278000F4E70000200000204C010020074810B5AD
:1027900000218180C18028210548FDF7DAFC04482A
:1027A000A021BDE810402830FDF7D3BC2000002058
:1027B0004C010020704700000348007808B1FFF783
:1027C00071BAFFF761BA0000740000200348007876
:1027D00008B1FFF76DBAFFF75DBA00007400002082
:1027E0000349097809B1FFF76BBAFFF76FBC000026
:1027F000740000200348007808B1FFF72DBCFFF7F4
:1028000079BE0000740000200348007808B1FFF78B
:1028100031BCFFF77FBE0000740000200348007841
:1028200008B1FFF74DBCFFF7A5BE00007400002003
:10283000FEF7D8BC30B593B028216846FDF789FC77
:1028400014210AA8FDF785FC002501200F9510959D
:102850001195010412958DE8230004904FF4E010C7
:10286000CDE90810022407946846FEF7E9FE98B9FE
:102870000AA90F2081E831006002CDE90D0502218F
:102880000AA8FEF701FE38B9A00311900F940FA813
:10289000FEF784FD002801D0FEF736F913B030BDF5
:1028A000704701680C3151E8002F22F4907241E822
:1028B0000023002BF5D10168143151E8002F22F0DC
:1028C000010241E80023002BF5D1016B012909D158
:1028D00001680C3151E8002F22F0100241E800237A
:1028E000002BF5D1202180F84210002101637047B0
:1028F00070B5044600680169E26821F44051114353
:1029000001612169A0680843616908432168CA68B8
:1029100041F20C639A430243CA6020684169A2698C
:1029200021F44071114341611E492068884202D15F
:10293000FEF750FE01E0FEF73DFE00EBC00101EBAB
:102940000012606864218000B2FBF0F3B3FBF1F386
:102950006FF018067343B2FBF0F5B2FBF0F605EB2F
:102960008305322303EB0515B5FBF1F5B6FBF1F654
:1029700005F0F00505EB0615B2FBF0F6B2FBF0F042
:10298000B0FBF1F06FF01802504306EB800003EB50
:102990000010B0FBF1F0216800F00F0028448860BF
:1029A00070BD0000003801402DE9F84398461746F5
:1029B0000D460446089E24E0701C22D0FEF70CFC55
:1029C000A0EB0800B0421AD8CEB12068C168490710
:1029D00017D5802D15D0402D13D00168C9430907A4
:1029E0000FD401680025406800902046FFF759FF8A
:1029F0000820606484F840500120BDE8F88303207B
:102A0000FBE72068006835EA000004D00020B842E7
:102A1000D2D00020F1E70120F9E7FEE70FB4054B23
:102A200010B503A9044A029800F0EAF810BC5DF85A
:102A300014FB000031330008780000200907090E5C
:102A4000002804DB00F1E02080F80014704700F05B
:102A50000F0000F1E02080F8141D704702E008C864
:102A6000121F08C1002AFAD170477047002001E008
:102A700001C1121F002AFBD1704700002DE9FF5F42
:102A800082B00021DDE90430020DDDF840B00343DF
:102A900018D044F61050A2F2FF3242431514119898
:102AA00001281FD0A5EB0B00401C5FEA000A4FF085
:102AB00000064E4FDFF83891B046504615D5CAF1A2
:102AC000000413E0119801244AA3012801D16FEA00
:102AD0000B010298119AC0E90031C0E9024206B028
:102AE000BDE8F09FCBF10000DFE704460021404A3B
:102AF000491842EB0450CDE9001012E0E00707D07E
:102B000032463B4640464946FDF753FD80468946DE
:102B100032463B4610461946FDF74BFD06460F462A
:102B20006410002CEAD1DDE90401DDE90023BAF1EB
:102B3000000F06DAFDF73DFD42464B46FDF739FD35
:102B400005E0FDF7A8FD42464B46FDF7A4FD04460F
:102B50000E460022284BFDF725FE03D84FF0FF302C
:102B6000014607E00022254B20463146FDF77AFC5E
:102B7000FDF700FE102409E0002C0ADB0A220023E6
:102B8000FDF708FC039B30321A55641E50EA01021F
:102B9000F2D1641C039AC4F111031444119A012A5E
:102BA00003D0012208430DD10AE0084304D00020DD
:102BB0004FF0110B119072E7A3EB0B056D1E0DE0AA
:102BC0005B4504DD4FF0000205F1010504E003DA86
:102BD0004FF00002A5F10105002AECD002981199EE
:102BE000C0E90231C0E9004579E700000000144067
:102BF0000000F03F300000000000F0430000E03F24
:102C00002DE9FF4F95B09B468946064600250FE209
:102C1000252877D100242746F84A0121059400E0B1
:102C2000044316F8013F203B01FA03F01042F7D1AC
:102C300030782A2811D06FF02F033078A0F13002BD
:102C4000092A16D8059A44F0020402EB820203EB2B
:102C500042021044761C0590EFE759F8042B0592C8
:102C6000002A03DA504244F40054059044F0020470
:102C7000761C30782E2816D116F8010F44F0040483
:102C80002A280DD06FF02F023078A0F13003092BE5
:102C900009D807EB870302EB4303C718761CF3E759
:102CA00059F8047B761C30786C280FD006DC4C2851
:102CB00017D068280DD06A2814D104E0742810D0E9
:102CC0007A280FD10DE044F400140AE044F4801493
:102CD00001E044F440147278824202D104F5801479
:102CE000761C761C307866280BD013DC582877D0F9
:102CF00009DC002875D04528F6D04628F4D04728AE
:102D00001AD19DE118E0632835D0642879D0652870
:102D100012D195E1702873D008DC6728F1D06928BA
:102D20006FD06E280DD06F2806D1B5E073282CD057
:102D3000752875D0782874D05A46179990476D1C1D
:102D400075E1C4F30250022809D003280DD0D9F848
:102D5000001004280DD00D6009F1040967E1D9F8CD
:102D60000010EA17C1E90052F6E7D9F800100D800B
:102D7000F2E70D70F0E719F8041B8DF80010002041
:102D80008DF80100EA46012003E059F804AB4FF04A
:102D9000FF3061074FF0000102D40DE008F101019E
:102DA0008846B9420FDA8045F8DB1AF80810002986
:102DB000F4D108E008F1010188468142FADB1AF8F3
:102DC00008100029F6D105985B46A0EB08072146BC
:102DD0003846179A00F094FA284400EB080507E0FB
:102DE0004DE029E10DE01AF8010B5A46179990477A
:102DF000B8F10108F7D25B4621463846179A13E12D
:102E000042E00A220092C4F302524FF0000A022A62
:102E100008D059F804CB032A4FEAEC710AD00DE030
:102E200029E02AE009F1070121F00702F2E802C1D6
:102E3000914609E00FFA8CFC4FEAEC71042A03D1A9
:102E40004FFA8CFC4FEAEC71002907DA0A460021A0
:102E5000DCF1000C61EB02012D2202E0220504D519
:102E60002B228DF80420012203E0E20701D020226A
:102E7000F7E7904659E00A2102E010220DE0102108
:102E80004FF0000A00910BE010224FF0000A44F0CE
:102E900004040827009203E008224FF0000A009281
:102EA000C4F30252022A05D059F804CB0021032AA8
:102EB00008D009E009F1070121F00702F2E802C198
:102EC000914605E01FFA8CFC042A01D10CF0FF0C9E
:102ED0004FF00008220728D5702806D0009B83F009
:102EE000100353EA0A0305D00EE040228DF80420B7
:102EF000012208E05CEA010206D030228DF80420AD
:102F00008DF8050002229046009B83F0080353EAE7
:102F10000A030AD15CEA010201D1620705D5302219
:102F20008DF804204FF001087F1E582804D034A0EB
:102F300003900EA802900DE036A0F9E753466046D4
:102F4000009AFDF727FA84460398825C0298401E97
:102F5000029002705CEA0100F0D1029806A9081AFA
:102F600000F1200A600702D524F4803400E0012734
:102F7000574502DDA7EB0A0000E0002000EB0A0144
:102F8000009005984144401A0590E00306D45B4642
:102F90002146179A059800F0B3F90544002706E08A
:102FA00001A85A46C05D179990476D1C7F1C474584
:102FB000F6DBE0030CD55B462146179A059800F036
:102FC0009FF9054404E030205A46179990476D1C3C
:102FD0000099481E00900029F5DC08E0029802994B
:102FE0005A460078491C0291179990476D1CBAF116
:102FF0000001AAF1010AF1DC65E1000009280100E5
:10300000303132333435363738396162636465665E
:103010000000000030313233343536373839414220
:10302000434445460000000000F058F90544761C72
:10303000307800287FF4ECAD19B02846BDE8F08F59
:10304000620700D4062709F1070222F0070CFCE80A
:103050000223E14603F000485FEA080C02D00FF2B9
:10306000702C0DE05FEA045C02D50FF2682C07E0DB
:103070005FEAC47C02D00FF2602C01E0AFF2700C6A
:103080004FF0FF3823F00043CDF850C065280CD036
:1030900006DC452809D046281DD047283DD13DE013
:1030A000662818D067287ED138E00021112F01DB77
:1030B000112000E0781CCDE9000106A90EA8FFF759
:1030C000DDFCDDE90F010E9A03910021009207F16A
:1030D000010A04914DE04FF000400097CDE9011046
:1030E00006A90EA8FFF7CAFCDDE90F0203920E9BAA
:1030F00011990022DDF80CA00093049211B9791CFB
:1031000000EB010AB7EB0A0004D4C0F1FF3007F16D
:10311000010A0490AAEB0700019044E0012F00DAB5
:1031200001270021112F01DD112000E03846CDE9F3
:10313000000106A90EA8FFF7A1FCDDE90F010E9A18
:103140000391002104910092BA4621070CD40399FF
:10315000514500DA8A46BAF1010F05DD009AAAF15D
:103160000101515C302908D0B84202DA10F1040F95
:1031700006DA0121CDE9011015E0AAF10101E9E724
:10318000002805DC049901440491AAEB000102E047
:10319000411C514500DD8A460499401A401C0190AB
:1031A0004FF000400290200704D40198504501DB05
:1031B000CDF8048000208DF84F0002980DF14F07E4
:1031C000B0F1004F25D02B200E9002984FF002084E
:1031D00000280CDA404202902D200E9007E00A21D0
:1031E0000298FDF7C1F83031029007F8011DB8F1DF
:1031F0000001A8F10108F2DC02980028EFD1791E45
:103200000E980870307800F0200040F0450007F874
:10321000020D12A8C01B00F107081498007800B135
:10322000012000EB0A01019801EBE071059841448F
:10323000401A401E0590E00306D45B462146179ACB
:10324000059800F05DF805441498007818B15A46C6
:10325000179990476D1CE00324D55B462146179AC9
:10326000059800F04DF805441CE00498002807DBA1
:10327000DDE90301884203DD0098405C179901E015
:10328000179930205A469047049805F10105401CD3
:1032900004900198401E019004D12E205A4617999F
:1032A00090476D1CBAF10001AAF1010ADDDC05E0CE
:1032B00017F8010B5A46179990476D1CB8F1000199
:1032C000A8F10108F4DC5B462146179A0598ABE6A5
:1032D0002D0000002B000000200000002DE9F0412F
:1032E000044600251E461746880404D405E03946E6
:1032F0002020B0476D1C641EF9D52846BDE8F0813A
:103300002DE9F041044600251E469046C80301D52C
:10331000302700E02027880404D505E041463846E0
:10332000B0476D1C641EF9D52846BDE8F081000049
:1033300013B54FF6FF73012269460248FEF71EFCE3
:1033400000981CBD04010020FDF754FFFFF772FA3E
:10335000FFF73EF9FFF714F9FFF7AEF9FFF78CF925
:103360002C48FDF7C5FDFFF731FA2BA0FFF756FB00
:1033700001222D4F560331463846FDF728FF2B4CCE
:10338000FDF724FB0546FFF717FA012D02D0022DA9
:103390000CD010E0022803D0032801D018B10AE0B5
:1033A000FFF73CFA07E0FFF72FFA04E008B1032823
:1033B00001D1FFF71FFAFFF7FFF9012817D0022804
:1033C00015D0032806D0012231463846FDF7FFFE0E
:1033D00064201CE02078401CC0B2207002280BD36F
:1033E00031463846FDF7EBFE0020207004E0002255
:1033F00031463846FDF7EBFE64210648FDF7DAFC5E
:1034000020B90448FDF718FCFFF7EAF92F20FDF773
:10341000CFFDB5E77C00002073796D74656D206F7A
:103420006E2E2E2E0D0A000000100140000000201C
:10343000010202030405060708090A0B0C0D0E0F12
:103440001010010202030405060708090A0B0C0DFF
:103450000E0F101000000000000000000102030425
:103460000607080900000000010203042D2D2D208D
:103470004C312053455420444F4E4520284D696E11
:103480003A252E326629202D2D2D205B25755D20B5
:103490004C312046696E616C697A696E672E2E2EFA
:1034A00020437572723A252E32660D0A0000000024
:1034B0002D2D2D20574F524B2053554343455353E9
:1034C000202D2D2D205B25755D20503A252E32664E
:1034D0002C20626574613A252E34662C205B53558E
:1034E00043434553535D2C205261773A25750D0AAD
:1034F000000000002D2D2D204C3220534554544CFB
:10350000454420284C323A252E326620613A252E39
:10351000346629202D2D2D205B25755D204C65619D
:10352000726E696E67204C322E2E2E20503A252E58
:1035300032662C205261773A25750D0A0000000092
:103540002D2D2D20574F524B205355434345535358
:10355000202D2D2D205B25755D205B4B616C6D61F1
:103560006E5D20503A252E32662C20626574613AD9
:10357000252E34662C205B535543434553535D2C15
:10358000205261773A25750D0A0000002D2D2D205F
:103590004C3220534554544C454420284C323A2553
:1035A0002E326620613A252E346629202D2D2D20BD
:1035B0005B25755D205B4B616C6D616E5D204C65BC
:1035C00061726E696E67204C322E2E2E20503A2585
:1035D0002E32662C205261773A25750D0A000000C4
:1035E0002D2D2D204C312053455420444F4E452045
:1035F000284D696E3A252E326629202D2D2D205B0F
:1036000025755D205B4B616C6D616E5D204C3120DA
:1036100046696E616C697A696E672E2E2E20503A6B
:10362000252E32662C205261773A25750D0A00004E
:1036300050360008000000207C0000005C2A0008D2
:10364000CC3600087C000020AC0500006C2A000885
:103650000000000001000000100000000000000059
:1036600000127A00010100000000000000000000CC
:10367000000000000000000000000000000000004A
:10368000F401000000000000000000000000000045
:10369000000000000000000000000000000000002A
:1036A0000000000000000000F40100000000000025
:1036B000000000000000000000000000000000000A
:0C36C000804FC347010000000000000024
:04000005080000ED02
:00000001FF
